{
  "_format": "hh-sol-artifact-1",
  "contractName": "Voting",
  "sourceName": "contracts/Voting.sol",
  "abi": [
    {
      "inputs": [
        {
          "internalType": "string[]",
          "name": "candidateNames",
          "type": "string[]"
        }
      ],
      "stateMutability": "nonpayable",
      "type": "constructor"
    },
    {
      "anonymous": false,
      "inputs": [
        {
          "indexed": true,
          "internalType": "address",
          "name": "voter",
          "type": "address"
        },
        {
          "indexed": true,
          "internalType": "uint256",
          "name": "candidateId",
          "type": "uint256"
        }
      ],
      "name": "VoteCast",
      "type": "event"
    },
    {
      "anonymous": false,
      "inputs": [
        {
          "indexed": true,
          "internalType": "address",
          "name": "voter",
          "type": "address"
        }
      ],
      "name": "VoterRegistered",
      "type": "event"
    },
    {
      "inputs": [],
      "name": "admin",
      "outputs": [
        {
          "internalType": "address",
          "name": "",
          "type": "address"
        }
      ],
      "stateMutability": "view",
      "type": "function"
    },
    {
      "inputs": [
        {
          "internalType": "uint256",
          "name": "",
          "type": "uint256"
        }
      ],
      "name": "candidates",
      "outputs": [
        {
          "internalType": "uint256",
          "name": "id",
          "type": "uint256"
        },
        {
          "internalType": "string",
          "name": "name",
          "type": "string"
        },
        {
          "internalType": "uint256",
          "name": "voteCount",
          "type": "uint256"
        }
      ],
      "stateMutability": "view",
      "type": "function"
    },
    {
      "inputs": [
        {
          "internalType": "uint256",
          "name": "candidateId",
          "type": "uint256"
        }
      ],
      "name": "getCandidate",
      "outputs": [
        {
          "components": [
            {
              "internalType": "uint256",
              "name": "id",
              "type": "uint256"
            },
            {
              "internalType": "string",
              "name": "name",
              "type": "string"
            },
            {
              "internalType": "uint256",
              "name": "voteCount",
              "type": "uint256"
            }
          ],
          "internalType": "struct Voting.Candidate",
          "name": "",
          "type": "tuple"
        }
      ],
      "stateMutability": "view",
      "type": "function"
    },
    {
      "inputs": [],
      "name": "getTotalCandidates",
      "outputs": [
        {
          "internalType": "uint256",
          "name": "",
          "type": "uint256"
        }
      ],
      "stateMutability": "view",
      "type": "function"
    },
    {
      "inputs": [
        {
          "internalType": "address",
          "name": "voter",
          "type": "address"
        }
      ],
      "name": "registerVoter",
      "outputs": [],
      "stateMutability": "nonpayable",
      "type": "function"
    },
    {
      "inputs": [
        {
          "internalType": "uint256",
          "name": "candidateId",
          "type": "uint256"
        }
      ],
      "name": "vote",
      "outputs": [],
      "stateMutability": "nonpayable",
      "type": "function"
    },
    {
      "inputs": [
        {
          "internalType": "address",
          "name": "",
          "type": "address"
        }
      ],
      "name": "voters",
      "outputs": [
        {
          "internalType": "bool",
          "name": "registered",
          "type": "bool"
        },
        {
          "internalType": "bool",
          "name": "voted",
          "type": "bool"
        },
        {
          "internalType": "uint256",
          "name": "voteIndex",
          "type": "uint256"
        }
      ],
      "stateMutability": "view",
      "type": "function"
    }
  ],
  "bytecode": "0x60806040523480156200001157600080fd5b5060405162000bcd38038062000bcd833981016040819052620000349162000129565b600080546001600160a01b031916331781555b8151811015620000d857600260405180606001604052808381526020018484815181106200007957620000796200026e565b602090810291909101810151825260009181018290528354600181810186559483529181902083516003909302019182558201519192909190820190620000c1908262000315565b506040919091015160029091015560010162000047565b5050620003e1565b634e487b7160e01b600052604160045260246000fd5b604051601f8201601f191681016001600160401b0381118282101715620001215762000121620000e0565b604052919050565b600060208083850312156200013d57600080fd5b82516001600160401b03808211156200015557600080fd5b8185019150601f86601f8401126200016c57600080fd5b825182811115620001815762000181620000e0565b8060051b62000192868201620000f6565b918252848101860191868101908a841115620001ad57600080fd5b87870192505b838310156200026057825186811115620001cd5760008081fd5b8701603f81018c13620001e05760008081fd5b8881015187811115620001f757620001f7620000e0565b6200020a818801601f19168b01620000f6565b81815260408e81848601011115620002225760008081fd5b60005b8381101562000242578481018201518382018e01528c0162000225565b505060009181018b01919091528352509187019190870190620001b3565b9a9950505050505050505050565b634e487b7160e01b600052603260045260246000fd5b600181811c908216806200029957607f821691505b602082108103620002ba57634e487b7160e01b600052602260045260246000fd5b50919050565b601f82111562000310576000816000526020600020601f850160051c81016020861015620002eb5750805b601f850160051c820191505b818110156200030c57828155600101620002f7565b5050505b505050565b81516001600160401b03811115620003315762000331620000e0565b620003498162000342845462000284565b84620002c0565b602080601f831160018114620003815760008415620003685750858301515b600019600386901b1c1916600185901b1785556200030c565b600085815260208120601f198616915b82811015620003b25788860151825594840194600190910190840162000391565b5085821015620003d15787850151600019600388901b60f8161c191681555b5050505050600190811b01905550565b6107dc80620003f16000396000f3fe608060405234801561001057600080fd5b506004361061007d5760003560e01c806335b8e8201161005b57806335b8e820146100cf57806338db6dd3146100ef578063a3ec138d14610102578063f851a4401461015357600080fd5b80630121b93f146100825780630deb56ab146100975780633477ee2e146100ad575b600080fd5b61009561009036600461063b565b61017e565b005b6002546040519081526020015b60405180910390f35b6100c06100bb36600461063b565b61031c565b6040516100a49392919061069a565b6100e26100dd36600461063b565b6103da565b6040516100a491906106c3565b6100956100fd3660046106ff565b61051f565b6101366101103660046106ff565b6001602081905260009182526040909120805491015460ff808316926101009004169083565b6040805193151584529115156020840152908201526060016100a4565b600054610166906001600160a01b031681565b6040516001600160a01b0390911681526020016100a4565b33600090815260016020526040902054610100900460ff16156101e85760405162461bcd60e51b815260206004820152601660248201527f596f75206861766520616c726561647920766f7465640000000000000000000060448201526064015b60405180910390fd5b3360009081526001602052604090205460ff166102475760405162461bcd60e51b815260206004820152601760248201527f566f746572206973206e6f74207265676973746572656400000000000000000060448201526064016101df565b600254811061028f5760405162461bcd60e51b8152602060048201526014602482015273125b9d985b1a590818d85b991a59185d1948125160621b60448201526064016101df565b336000908152600160208190526040909120805461ff001916610100178155810182905560028054839081106102c7576102c761072f565b906000526020600020906003020160020160008282546102e79190610745565b9091555050604051819033907fa36cc2bebb74db33e9f88110a07ef56e1b31b24b4c4f51b54b1664266e29f45b90600090a350565b6002818154811061032c57600080fd5b600091825260209091206003909102018054600182018054919350906103519061076c565b80601f016020809104026020016040519081016040528092919081815260200182805461037d9061076c565b80156103ca5780601f1061039f576101008083540402835291602001916103ca565b820191906000526020600020905b8154815290600101906020018083116103ad57829003601f168201915b5050505050908060020154905083565b6103fe60405180606001604052806000815260200160608152602001600081525090565b60025482106104465760405162461bcd60e51b8152602060048201526014602482015273125b9d985b1a590818d85b991a59185d1948125160621b60448201526064016101df565b600282815481106104595761045961072f565b90600052602060002090600302016040518060600160405290816000820154815260200160018201805461048c9061076c565b80601f01602080910402602001604051908101604052809291908181526020018280546104b89061076c565b80156105055780601f106104da57610100808354040283529160200191610505565b820191906000526020600020905b8154815290600101906020018083116104e857829003601f168201915b505050505081526020016002820154815250509050919050565b6000546001600160a01b031633146105835760405162461bcd60e51b815260206004820152602160248201527f4f6e6c792061646d696e2063616e2063616c6c20746869732066756e6374696f6044820152603760f91b60648201526084016101df565b6001600160a01b03811660009081526001602052604090205460ff16156105ec5760405162461bcd60e51b815260206004820152601b60248201527f566f74657220697320616c72656164792072656769737465726564000000000060448201526064016101df565b6001600160a01b0381166000818152600160208190526040808320805460ff1916909217909155517fb6be2187d059cc2a55fe29e0e503b566e1e0f8c8780096e185429350acffd3dd9190a250565b60006020828403121561064d57600080fd5b5035919050565b6000815180845260005b8181101561067a5760208185018101518683018201520161065e565b506000602082860101526020601f19601f83011685010191505092915050565b8381526060602082015260006106b36060830185610654565b9050826040830152949350505050565b602081528151602082015260006020830151606060408401526106e96080840182610654565b9050604084015160608401528091505092915050565b60006020828403121561071157600080fd5b81356001600160a01b038116811461072857600080fd5b9392505050565b634e487b7160e01b600052603260045260246000fd5b8082018082111561076657634e487b7160e01b600052601160045260246000fd5b92915050565b600181811c9082168061078057607f821691505b6020821081036107a057634e487b7160e01b600052602260045260246000fd5b5091905056fea26469706673582212201e6d4020934ec7cc6856eca7a0aad129a11636432a98881008334c07bb46007564736f6c63430008180033",
  "linkReferences": {},
  "deployedLinkReferences": {}
}